{"abi":[{"type":"constructor","inputs":[{"name":"_stylusVerifier","type":"address","internalType":"address"}],"stateMutability":"nonpayable"},{"type":"function","name":"getStylusVerifier","inputs":[],"outputs":[{"name":"","type":"address","internalType":"address"}],"stateMutability":"view"},{"type":"function","name":"getVerifiedCount","inputs":[],"outputs":[{"name":"","type":"uint256","internalType":"uint256"}],"stateMutability":"view"},{"type":"function","name":"stylusVerifier","inputs":[],"outputs":[{"name":"","type":"address","internalType":"address"}],"stateMutability":"view"},{"type":"function","name":"verifiedCount","inputs":[],"outputs":[{"name":"","type":"uint256","internalType":"uint256"}],"stateMutability":"view"},{"type":"function","name":"verify","inputs":[{"name":"","type":"bytes","internalType":"bytes"},{"name":"","type":"bytes[]","internalType":"bytes[]"}],"outputs":[{"name":"","type":"bool","internalType":"bool"}],"stateMutability":"nonpayable"},{"type":"function","name":"verifySimple","inputs":[],"outputs":[{"name":"","type":"bool","internalType":"bool"}],"stateMutability":"nonpayable"},{"type":"event","name":"ProofVerified","inputs":[{"name":"user","type":"address","indexed":true,"internalType":"address"},{"name":"result","type":"bool","indexed":false,"internalType":"bool"},{"name":"gasUsed","type":"uint256","indexed":false,"internalType":"uint256"}],"anonymous":false}],"bytecode":{"object":"0x60a03460b057601f61030138819003918201601f19168301916001600160401b0383118484101760b45780849260209460405283398101031260b057516001600160a01b03811680820360b05715606b5760805260405161023890816100c982396080518161016d0152f35b60405162461bcd60e51b815260206004820152601860248201527f496e76616c6964207665726966696572206164647265737300000000000000006044820152606490fd5b5f80fd5b634e487b7160e01b5f52604160045260245ffdfe6080806040526004361015610012575f80fd5b5f3560e01c9081636bfe4ec21461013f575080637436ca7c1461007e578063829bbe2914610125578063897288e01461008357806390de03021461007e5763cb7940421461005e575f80fd5b3461007a575f36600319011261007a5760205f54604051908152f35b5f80fd5b610158565b3461007a57604036600319011261007a5760043567ffffffffffffffff811161007a573660238201121561007a57806004013567ffffffffffffffff811161007a573691016024011161007a5760243567ffffffffffffffff811161007a573660238201121561007a5780600401359067ffffffffffffffff821161007a57602490369260051b01011161007a57602061011b61019c565b6040519015158152f35b3461007a575f36600319011261007a57602061011b61019c565b3461007a575f36600319011261007a576020905f548152f35b3461007a575f36600319011261007a576040517f00000000000000000000000000000000000000000000000000000000000000006001600160a01b03168152602090f35b5a5f545f1981146101ee576001015f555a81039081116101ee57604051906001825260208201527f1a3c3d9ea4bb433a209943b5a877ec79bb67f94676c75ccada8c47396e50179c60403392a2600190565b634e487b7160e01b5f52601160045260245ffdfea2646970667358221220a00ce8c0e1979515b88077d2053a3a14b3fa439068ff54bcd84628e80f92c48864736f6c634300081c0033","linkReferences":{}},"methodIdentifiers":{"getStylusVerifier()":"90de0302","getVerifiedCount()":"cb794042","stylusVerifier()":"7436ca7c","verifiedCount()":"6bfe4ec2","verify(bytes,bytes[])":"897288e0","verifySimple()":"829bbe29"},"id":31}