{"abi":[{"type":"function","name":"getUserVerifications","inputs":[{"name":"user","type":"address","internalType":"address"}],"outputs":[{"name":"","type":"uint256","internalType":"uint256"}],"stateMutability":"view"},{"type":"function","name":"getVerifiedCount","inputs":[],"outputs":[{"name":"","type":"uint256","internalType":"uint256"}],"stateMutability":"view"},{"type":"function","name":"userVerifications","inputs":[{"name":"","type":"address","internalType":"address"}],"outputs":[{"name":"","type":"uint256","internalType":"uint256"}],"stateMutability":"view"},{"type":"function","name":"verifiedCount","inputs":[],"outputs":[{"name":"","type":"uint256","internalType":"uint256"}],"stateMutability":"view"},{"type":"function","name":"verify","inputs":[{"name":"proof","type":"bytes","internalType":"bytes"},{"name":"publicInputs","type":"bytes[]","internalType":"bytes[]"}],"outputs":[{"name":"","type":"bool","internalType":"bool"}],"stateMutability":"nonpayable"},{"type":"function","name":"verifySimple","inputs":[],"outputs":[{"name":"","type":"bool","internalType":"bool"}],"stateMutability":"nonpayable"},{"type":"event","name":"ProofVerified","inputs":[{"name":"user","type":"address","indexed":true,"internalType":"address"},{"name":"result","type":"bool","indexed":false,"internalType":"bool"},{"name":"timestamp","type":"uint256","indexed":false,"internalType":"uint256"},{"name":"gasUsed","type":"uint256","indexed":false,"internalType":"uint256"}],"anonymous":false}],"bytecode":{"object":"0x6080806040523460155761039a908161001a8239f35b5f80fdfe6080806040526004361015610012575f80fd5b5f3560e01c9081631469fab7146102fc5750806346616268146102c05780636bfe4ec21461005e578063829bbe29146102a2578063897288e01461007e5763cb7940421461005e575f80fd5b3461007a575f36600319011261007a5760205f54604051908152f35b5f80fd5b3461007a57604036600319011261007a5760043567ffffffffffffffff811161007a573660238201121561007a5780600401359067ffffffffffffffff821161007a57602482369201011161007a5760243567ffffffffffffffff811161007a573660238201121561007a5780600401359067ffffffffffffffff821161007a573660248360051b8301011161007a576101005a930361026657811561022e57368190036042190190835f5b848110156101bb5760248160051b840101358481121561007a57830160248101359067ffffffffffffffff821161007a57604482360391011361007a576020036101765760010161012a565b60405162461bcd60e51b815260206004820152601b60248201527f496e76616c6964207075626c696320696e707574206c656e67746800000000006044820152606490fd5b6101ea826101c95f54610335565b5f55335f52600160205260405f206101e18154610335565b90555a90610357565b604051906001825242602083015260408201527fff14866850fcba3f56f5227c442391448b2aa2af39bbf2b0ea071435f07b4c2360603392a2602060405160018152f35b60405162461bcd60e51b815260206004820152601060248201526f4e6f207075626c696320696e7075747360801b6044820152606490fd5b60405162461bcd60e51b8152602060048201526014602482015273092dcecc2d8d2c840e0e4dedecc40d8cadccee8d60631b6044820152606490fd5b3461007a575f36600319011261007a576101ea5a6101c95f54610335565b3461007a57602036600319011261007a576004356001600160a01b0381169081900361007a575f526001602052602060405f2054604051908152f35b3461007a57602036600319011261007a576004356001600160a01b038116919082900361007a576020915f526001825260405f20548152f35b5f1981146103435760010190565b634e487b7160e01b5f52601160045260245ffd5b919082039182116103435756fea26469706673582212201f75a17c2bce627c24767f0fed6d66efa4e75b39cb631aca13e96eb89073e98264736f6c634300081c0033","linkReferences":{}},"methodIdentifiers":{"getUserVerifications(address)":"1469fab7","getVerifiedCount()":"cb794042","userVerifications(address)":"46616268","verifiedCount()":"6bfe4ec2","verify(bytes,bytes[])":"897288e0","verifySimple()":"829bbe29"},"id":0}