{"abi":[{"type":"constructor","inputs":[{"name":"_groth16Verifier","type":"address","internalType":"address"}],"stateMutability":"nonpayable"},{"type":"function","name":"groth16Verifier","inputs":[],"outputs":[{"name":"","type":"address","internalType":"address"}],"stateMutability":"view"},{"type":"function","name":"isCompliant","inputs":[{"name":"user","type":"address","internalType":"address"},{"name":"attributeType","type":"string","internalType":"string"}],"outputs":[{"name":"verified","type":"bool","internalType":"bool"}],"stateMutability":"view"},{"type":"function","name":"owner","inputs":[],"outputs":[{"name":"","type":"address","internalType":"address"}],"stateMutability":"view"},{"type":"function","name":"renounceOwnership","inputs":[],"outputs":[],"stateMutability":"nonpayable"},{"type":"function","name":"transferOwnership","inputs":[{"name":"newOwner","type":"address","internalType":"address"}],"outputs":[],"stateMutability":"nonpayable"},{"type":"function","name":"updateGroth16Verifier","inputs":[{"name":"_newVerifier","type":"address","internalType":"address"}],"outputs":[],"stateMutability":"nonpayable"},{"type":"function","name":"userCompliance","inputs":[{"name":"","type":"address","internalType":"address"},{"name":"","type":"string","internalType":"string"}],"outputs":[{"name":"","type":"bool","internalType":"bool"}],"stateMutability":"view"},{"type":"function","name":"verifiedProofs","inputs":[{"name":"","type":"bytes32","internalType":"bytes32"}],"outputs":[{"name":"","type":"bool","internalType":"bool"}],"stateMutability":"view"},{"type":"function","name":"verifyProof","inputs":[{"name":"a","type":"uint256[2]","internalType":"uint256[2]"},{"name":"b","type":"uint256[2][2]","internalType":"uint256[2][2]"},{"name":"c","type":"uint256[2]","internalType":"uint256[2]"},{"name":"publicInputs","type":"uint256[2]","internalType":"uint256[2]"},{"name":"attributeType","type":"string","internalType":"string"}],"outputs":[{"name":"success","type":"bool","internalType":"bool"}],"stateMutability":"nonpayable"},{"type":"event","name":"Groth16VerifierUpdated","inputs":[{"name":"oldVerifier","type":"address","indexed":true,"internalType":"address"},{"name":"newVerifier","type":"address","indexed":true,"internalType":"address"}],"anonymous":false},{"type":"event","name":"OwnershipTransferred","inputs":[{"name":"previousOwner","type":"address","indexed":true,"internalType":"address"},{"name":"newOwner","type":"address","indexed":true,"internalType":"address"}],"anonymous":false},{"type":"event","name":"ProofVerified","inputs":[{"name":"user","type":"address","indexed":true,"internalType":"address"},{"name":"attributeType","type":"string","indexed":false,"internalType":"string"},{"name":"proofHash","type":"bytes32","indexed":false,"internalType":"bytes32"},{"name":"gasUsed","type":"uint256","indexed":false,"internalType":"uint256"}],"anonymous":false},{"type":"error","name":"OwnableInvalidOwner","inputs":[{"name":"owner","type":"address","internalType":"address"}]},{"type":"error","name":"OwnableUnauthorizedAccount","inputs":[{"name":"account","type":"address","internalType":"address"}]}],"bytecode":{"object":"0x60803461011d57601f61085238819003918201601f19168301916001600160401b038311848410176101215780849260209460405283398101031261011d57516001600160a01b0381169081900361011d57331561010a575f8054336001600160a01b03198216811783556040519290916001600160a01b0316907f8be0079c531659141344cd1fd0a4f28419497f9722a3daafe3b4186f6b6457e09080a381156100c85750600180546001600160a01b03191691909117905560405161071c90816101368239f35b62461bcd60e51b815260206004820152601860248201527f496e76616c6964207665726966696572206164647265737300000000000000006044820152606490fd5b631e4fbdf760e01b5f525f60045260245ffd5b5f80fd5b634e487b7160e01b5f52604160045260245ffdfe6080806040526004361015610012575f80fd5b5f3560e01c908163176d80c41461062f5750806319c813be146106075780631e196dc71461037f5780635156fda11461030f578063715018a6146102b85780638da5cb5b14610291578063aec4bbb0146101c0578063b5f21e88146101085763f2fde38b1461007f575f80fd5b3461010457602036600319011261010457610098610688565b6100a06106c0565b6001600160a01b031680156100f1575f80546001600160a01b03198116831782556001600160a01b0316907f8be0079c531659141344cd1fd0a4f28419497f9722a3daafe3b4186f6b6457e09080a3005b631e4fbdf760e01b5f525f60045260245ffd5b5f80fd5b3461010457602036600319011261010457610121610688565b6101296106c0565b6001600160a01b0316801561017b57600180546001600160a01b0319811683179091556001600160a01b03167fef6be32b42bf78f5eb580dd49ec787793d227e215a76190a7beea9b2ac7cb4785f80a3005b60405162461bcd60e51b815260206004820152601860248201527f496e76616c6964207665726966696572206164647265737300000000000000006044820152606490fd5b34610104576040366003190112610104576101d9610688565b60243567ffffffffffffffff811161010457366023820112156101045780600401359067ffffffffffffffff821161027d5760405190610223601f8401601f19166020018361069e565b82825260208201913660248584010111610104576020945f868660ff97602483970188378401015260018060a01b03165f526003825260405f20604051938492518091845e82019081520301902054166040519015158152f35b634e487b7160e01b5f52604160045260245ffd5b34610104575f366003190112610104575f546040516001600160a01b039091168152602090f35b34610104575f366003190112610104576102d06106c0565b5f80546001600160a01b0319811682556001600160a01b03167f8be0079c531659141344cd1fd0a4f28419497f9722a3daafe3b4186f6b6457e08280a3005b3461010457604036600319011261010457610328610688565b60243567ffffffffffffffff8111610104576020918261034e60ff93369060040161065a565b9260018060a01b03165f526003825260405f2083604051948593843782019081520301902054166040519015158152f35b34610104576101603660031901126101045736604411610104573660c411610104573661010411610104573661014411610104576101443567ffffffffffffffff8111610104576103d490369060040161065a565b905a60015460408051637ae4eb4f60e11b8152929392916001600160a01b0316906004808401378160445f8183015b600282106105ed5750505061014481602093604060c4808401376040610104808401375afa9081156105e2575f916105a7575b501561056257604051602081019060406004833760445f606083015b6002821061054c57505050604060c460e0830137604061010461012083013761014081526104826101608261069e565b51902091825f52600260205260405f20600160ff19825416179055335f52600360205260405f20602060405180928786833781880190815203019020805460ff191660011790555a8103908111610538577f142aa142a01bf97efeee299c6a83e0d42ce1319d41aefadc0c2f274429b53acc9284604051936060855281606086015260808501375f60808685010152602083015260408201526080813394601f80199101168101030190a2602060405160018152f35b634e487b7160e01b5f52601160045260245ffd5b6040808281866001953701930191019091610452565b60405162461bcd60e51b815260206004820152601960248201527f50726f6f6620766572696669636174696f6e206661696c6564000000000000006044820152606490fd5b90506020813d6020116105da575b816105c26020938361069e565b81010312610104575180151581036101045784610436565b3d91506105b5565b6040513d5f823e3d90fd5b829350604081816001949581943701930191018492610403565b34610104575f366003190112610104576001546040516001600160a01b039091168152602090f35b34610104576020366003190112610104576020906004355f526002825260ff60405f20541615158152f35b9181601f840112156101045782359167ffffffffffffffff8311610104576020838186019501011161010457565b600435906001600160a01b038216820361010457565b90601f8019910116810190811067ffffffffffffffff82111761027d57604052565b5f546001600160a01b031633036106d357565b63118cdaa760e01b5f523360045260245ffdfea26469706673582212201775a0b9be95e32f884fe1f2cafec592c43a625f5cba7fe1aa46ef06564f463f64736f6c634300081c0033","linkReferences":{}},"methodIdentifiers":{"groth16Verifier()":"19c813be","isCompliant(address,string)":"5156fda1","owner()":"8da5cb5b","renounceOwnership()":"715018a6","transferOwnership(address)":"f2fde38b","updateGroth16Verifier(address)":"b5f21e88","userCompliance(address,string)":"aec4bbb0","verifiedProofs(bytes32)":"176d80c4","verifyProof(uint256[2],uint256[2][2],uint256[2],uint256[2],string)":"1e196dc7"},"id":32}