{"abi":[{"type":"function","name":"addGuardian","inputs":[{"name":"guardian","type":"address","internalType":"address"}],"outputs":[],"stateMutability":"nonpayable"},{"type":"function","name":"getPasskeyPublicKey","inputs":[{"name":"user","type":"address","internalType":"address"},{"name":"credentialId","type":"bytes32","internalType":"bytes32"}],"outputs":[{"name":"","type":"bytes","internalType":"bytes"}],"stateMutability":"view"},{"type":"function","name":"getUserPasskeys","inputs":[{"name":"user","type":"address","internalType":"address"}],"outputs":[{"name":"credentialIds","type":"bytes32[]","internalType":"bytes32[]"},{"name":"deviceNames","type":"string[]","internalType":"string[]"},{"name":"lastUsed","type":"uint256[]","internalType":"uint256[]"}],"stateMutability":"view"},{"type":"function","name":"hasActivePasskey","inputs":[{"name":"user","type":"address","internalType":"address"}],"outputs":[{"name":"","type":"bool","internalType":"bool"}],"stateMutability":"view"},{"type":"function","name":"publicKeyOwner","inputs":[{"name":"","type":"bytes32","internalType":"bytes32"}],"outputs":[{"name":"","type":"address","internalType":"address"}],"stateMutability":"view"},{"type":"function","name":"recordPasskeyUsage","inputs":[{"name":"credentialId","type":"bytes32","internalType":"bytes32"}],"outputs":[],"stateMutability":"nonpayable"},{"type":"function","name":"recoveryRequests","inputs":[{"name":"","type":"address","internalType":"address"}],"outputs":[{"name":"newOwner","type":"address","internalType":"address"},{"name":"approvalCount","type":"uint256","internalType":"uint256"},{"name":"expiresAt","type":"uint256","internalType":"uint256"}],"stateMutability":"view"},{"type":"function","name":"registerPasskey","inputs":[{"name":"credentialId","type":"bytes32","internalType":"bytes32"},{"name":"publicKey","type":"bytes","internalType":"bytes"},{"name":"deviceName","type":"string","internalType":"string"}],"outputs":[],"stateMutability":"nonpayable"},{"type":"function","name":"revokePasskey","inputs":[{"name":"credentialId","type":"bytes32","internalType":"bytes32"}],"outputs":[],"stateMutability":"nonpayable"},{"type":"event","name":"GuardianAdded","inputs":[{"name":"user","type":"address","indexed":true,"internalType":"address"},{"name":"guardian","type":"address","indexed":true,"internalType":"address"}],"anonymous":false},{"type":"event","name":"PasskeyRegistered","inputs":[{"name":"user","type":"address","indexed":true,"internalType":"address"},{"name":"credentialId","type":"bytes32","indexed":true,"internalType":"bytes32"},{"name":"deviceName","type":"string","indexed":false,"internalType":"string"},{"name":"timestamp","type":"uint256","indexed":false,"internalType":"uint256"}],"anonymous":false},{"type":"event","name":"PasskeyRevoked","inputs":[{"name":"user","type":"address","indexed":true,"internalType":"address"},{"name":"credentialId","type":"bytes32","indexed":true,"internalType":"bytes32"},{"name":"timestamp","type":"uint256","indexed":false,"internalType":"uint256"}],"anonymous":false},{"type":"event","name":"PasskeyUsed","inputs":[{"name":"user","type":"address","indexed":true,"internalType":"address"},{"name":"credentialId","type":"bytes32","indexed":true,"internalType":"bytes32"},{"name":"timestamp","type":"uint256","indexed":false,"internalType":"uint256"}],"anonymous":false},{"type":"event","name":"RecoveryApproved","inputs":[{"name":"guardian","type":"address","indexed":true,"internalType":"address"},{"name":"user","type":"address","indexed":true,"internalType":"address"}],"anonymous":false},{"type":"event","name":"RecoveryExecuted","inputs":[{"name":"oldOwner","type":"address","indexed":true,"internalType":"address"},{"name":"newOwner","type":"address","indexed":true,"internalType":"address"}],"anonymous":false},{"type":"event","name":"RecoveryInitiated","inputs":[{"name":"oldOwner","type":"address","indexed":true,"internalType":"address"},{"name":"newOwner","type":"address","indexed":true,"internalType":"address"},{"name":"expiresAt","type":"uint256","indexed":false,"internalType":"uint256"}],"anonymous":false}],"bytecode":{"object":"0x60808060405234601557610f52908161001a8239f35b5f80fdfe60806040526004361015610011575f80fd5b5f3560e01c806337c8430914610bb257806378388c96146108ea578063a1b097c514610893578063a526d83b146106f2578063c2c397d3146106c0578063c3073a5e14610693578063e9e3868f1461021a578063eab7bf3a146101095763f42ca6961461007c575f80fd5b3461010557604036600319011261010557610095610c28565b6001600160a01b03165f90815260208181526040808320602435808552928190529220600401546100c89060ff16610c90565b5f526020526101016100e66100ed60405f2060405192838092610d8e565b0382610d08565b604051918291602083526020830190610c3e565b0390f35b5f80fd5b3461010557602036600319011261010557600435335f525f60205260405f20815f528060205261014260ff600460405f20015416610c90565b60018082015411156101d557815f52806020526100e661016b60405f2060405192838092610d8e565b602081519101205f52600160205260405f206bffffffffffffffffffffffff60a01b8154169055815f52602052600460405f200160ff1981541690556040514281527fb0337df3d8f1ceb8faa4c02761e8ca8680c5ad39a1ea4ae9089b565a5cfe5fbc60203392a3005b60405162461bcd60e51b815260206004820152601a60248201527f43616e6e6f74207265766f6b65206c61737420706173736b65790000000000006044820152606490fd5b346101055760603660031901126101055760043560243567ffffffffffffffff81116101055761024e903690600401610c62565b60443567ffffffffffffffff81116101055761026e903690600401610c62565b92831561065757335f525f60205260405f209060048201805460ff811615610647575b5050855f528160205260ff600460405f20015416610602576102b4368583610e87565b6020815191012093845f52600160205260018060a01b0360405f2054166105bd576040519160a083019183831067ffffffffffffffff8411176104c3576102ff926040523691610e87565b815261030c368685610e87565b9060208101918252604081014281526060820190428252608083019360018552895f528560205260405f20935180519067ffffffffffffffff82116104c35761035f826103598854610d56565b88610ecd565b602090601f831160011461055a5761038e92915f918361054f575b50508160011b915f199060031b1c19161790565b84555b518051600185019167ffffffffffffffff82116104c3576103bc826103b68554610d56565b85610ecd565b602090601f83116001146104e257826001999897959360049795936103f5935f926104d75750508160011b915f199060031b1c19161790565b90555b516002830155516003820155019051151560ff801983541691161790550191825492600160401b8410156104c357836104579160017f7405ba2e3189787f3bf7651461af68d1e6555e73d1c46cf6895f953584a12b2a96018155610cd1565b81549060031b9087821b915f19901b19161790555f52600160205260405f20336bffffffffffffffffffffffff60a01b82541617905582604051916040835281604084015260608301375f606084830101524260208201526060813394601f80199101168101030190a3005b634e487b7160e01b5f52604160045260245ffd5b015190508f8061037a565b90601f19831691845f52815f20925f5b81811061053757509260019a9998969491928b938360049a98961061051f575b505050811b0190556103f8565b01515f1960f88460031b161c191690558e8080610512565b929360206001819287860151815501950193016104f2565b015190508d8061037a565b90601f19831691875f52815f20925f5b8181106105a5575090846001959493921061058d575b505050811b018455610391565b01515f1960f88460031b161c191690558c8080610580565b9293602060018192878601518155019501930161056a565b60405162461bcd60e51b815260206004820152601960248201527f5075626c6963206b657920616c726561647920696e20757365000000000000006044820152606490fd5b60405162461bcd60e51b815260206004820152601d60248201527f43726564656e7469616c20616c726561647920726567697374657265640000006044820152606490fd5b60ff191660011790558680610291565b60405162461bcd60e51b815260206004820152601460248201527311195d9a58d9481b985b59481c995c5d5a5c995960621b6044820152606490fd5b346101055760203660031901126101055760206106b66106b1610c28565b610e0f565b6040519015158152f35b34610105576020366003190112610105576004355f526001602052602060018060a01b0360405f205416604051908152f35b34610105576020366003190112610105576001600160a01b03610713610c28565b16801561085b5733811461081d57335f525f60205260405f2060ff600482015416156107d8576002810190815490600160401b8210156104c35761075f82600160039401855584610cd1565b81546001600160a01b0391851b91821b19169086901b179055018054909190156107ac575b82337fbc3292102fa77e083913064b282926717cdfaede4d35f553d66366c0a3da755a5f80a3005b54600181018091116107c45760011c90558180610784565b634e487b7160e01b5f52601160045260245ffd5b60405162461bcd60e51b815260206004820152601760248201527f4163636f756e74206e6f7420696e697469616c697a65640000000000000000006044820152606490fd5b60405162461bcd60e51b815260206004820152601660248201527521b0b73737ba1031329037bbb71033bab0b93234b0b760511b6044820152606490fd5b60405162461bcd60e51b815260206004820152601060248201526f24b73b30b634b21033bab0b93234b0b760811b6044820152606490fd5b34610105576020366003190112610105576001600160a01b036108b4610c28565b165f526002602052606060405f2060018060a01b0381541690600360018201549101549060405192835260208301526040820152f35b34610105576020366003190112610105576001600160a01b0361090b610c28565b165f525f60205260405f205f5f91600181018054935b848110610b68575061093283610d2a565b926109406040519485610d08565b80845261094c81610d2a565b602085019590601f190136873761096282610d2a565b926109706040519485610d08565b828452601f1961097f84610d2a565b015f5b818110610b555750506109ad61099784610d2a565b936109a56040519586610d08565b808552610d2a565b602084019590601f19013687375f915f5b848110610aa7575050505050604051948594606086019060608752518091526080860191905f5b818110610a8e575050508481036020860152825180825260208201916020808360051b8301019501925f915b838310610a59575050505050602090848303604086015251918281520191905f5b818110610a40575050500390f35b8251845285945060209384019390920191600101610a32565b9193969750919394602080610a7a600193601f198682030187528a51610c3e565b980193019301909288979695949293610a11565b82518452889750602093840193909201916001016109e5565b610ab781839b9798999a9b610cd1565b90549060031b1c805f52836020528a60ff600460405f20015416610ae6575b50506001019897969594986109be565b9481610b4d92610af98360019699610d42565b52805f52856020526100e6610b198560405f200160405192838092610d8e565b610b23838d610d42565b52610b2e828c610d42565b505f5284602052600360405f200154610b47828b610d42565b52610cfa565b93908a610ad6565b6060602082880181019190915201610982565b610b758183949593610cd1565b90549060031b1c5f528360205260ff600460405f20015416610b9e575b60010192919092610921565b90610baa600191610cfa565b919050610b92565b3461010557602036600319011261010557600435335f525f60205260405f20815f5280602052610beb60ff600460405f20015416610c90565b815f5260205242600360405f2001556040514281527f7c7e5762babc2620e7a91b1d0d4d2814773a940f2d2e671242f4ff15dc40bf8b60203392a3005b600435906001600160a01b038216820361010557565b805180835260209291819084018484015e5f828201840152601f01601f1916010190565b9181601f840112156101055782359167ffffffffffffffff8311610105576020838186019501011161010557565b15610c9757565b60405162461bcd60e51b8152602060048201526012602482015271506173736b6579206e6f742061637469766560701b6044820152606490fd5b8054821015610ce6575f5260205f2001905f90565b634e487b7160e01b5f52603260045260245ffd5b5f1981146107c45760010190565b90601f8019910116810190811067ffffffffffffffff8211176104c357604052565b67ffffffffffffffff81116104c35760051b60200190565b8051821015610ce65760209160051b010190565b90600182811c92168015610d84575b6020831014610d7057565b634e487b7160e01b5f52602260045260245ffd5b91607f1691610d65565b5f9291815491610d9d83610d56565b8083529260018116908115610df25750600114610db957505050565b5f9081526020812093945091925b838310610dd8575060209250010190565b600181602092949394548385870101520191019190610dc7565b915050602093945060ff929192191683830152151560051b010190565b6001600160a01b03165f908152602081905260409020600481015460ff1615610e82575f90600181018054925b838110610e4b57505050505f90565b610e558183610cd1565b90549060031b1c5f528260205260ff600460405f20015416610e7957600101610e3c565b50505050600190565b505f90565b92919267ffffffffffffffff82116104c35760405191610eb1601f8201601f191660200184610d08565b829481845281830111610105578281602093845f960137010152565b601f8211610eda57505050565b5f5260205f20906020601f840160051c83019310610f12575b601f0160051c01905b818110610f07575050565b5f8155600101610efc565b9091508190610ef356fea2646970667358221220a24bb34895f188c9cd733d03b3974c400252401825adca4d00eae3f8f2c6191464736f6c634300081c0033","linkReferences":{}},"methodIdentifiers":{"addGuardian(address)":"a526d83b","getPasskeyPublicKey(address,bytes32)":"f42ca696","getUserPasskeys(address)":"78388c96","hasActivePasskey(address)":"c3073a5e","publicKeyOwner(bytes32)":"c2c397d3","recordPasskeyUsage(bytes32)":"37c84309","recoveryRequests(address)":"a1b097c5","registerPasskey(bytes32,bytes,string)":"e9e3868f","revokePasskey(bytes32)":"eab7bf3a"},"id":23}