{"abi":[{"type":"function","name":"addGuardian","inputs":[{"name":"guardian","type":"address","internalType":"address"}],"outputs":[],"stateMutability":"nonpayable"},{"type":"function","name":"getPasskeyPublicKey","inputs":[{"name":"user","type":"address","internalType":"address"},{"name":"credentialId","type":"bytes32","internalType":"bytes32"}],"outputs":[{"name":"","type":"bytes","internalType":"bytes"}],"stateMutability":"view"},{"type":"function","name":"getUserPasskeys","inputs":[{"name":"user","type":"address","internalType":"address"}],"outputs":[{"name":"credentialIds","type":"bytes32[]","internalType":"bytes32[]"},{"name":"deviceNames","type":"string[]","internalType":"string[]"},{"name":"lastUsed","type":"uint256[]","internalType":"uint256[]"}],"stateMutability":"view"},{"type":"function","name":"hasActivePasskey","inputs":[{"name":"user","type":"address","internalType":"address"}],"outputs":[{"name":"","type":"bool","internalType":"bool"}],"stateMutability":"view"},{"type":"function","name":"publicKeyOwner","inputs":[{"name":"","type":"bytes32","internalType":"bytes32"}],"outputs":[{"name":"","type":"address","internalType":"address"}],"stateMutability":"view"},{"type":"function","name":"recordPasskeyUsage","inputs":[{"name":"credentialId","type":"bytes32","internalType":"bytes32"}],"outputs":[],"stateMutability":"nonpayable"},{"type":"function","name":"recoveryRequests","inputs":[{"name":"","type":"address","internalType":"address"}],"outputs":[{"name":"newOwner","type":"address","internalType":"address"},{"name":"approvalCount","type":"uint256","internalType":"uint256"},{"name":"expiresAt","type":"uint256","internalType":"uint256"}],"stateMutability":"view"},{"type":"function","name":"registerPasskey","inputs":[{"name":"credentialId","type":"bytes32","internalType":"bytes32"},{"name":"publicKey","type":"bytes","internalType":"bytes"},{"name":"deviceName","type":"string","internalType":"string"}],"outputs":[],"stateMutability":"nonpayable"},{"type":"function","name":"revokePasskey","inputs":[{"name":"credentialId","type":"bytes32","internalType":"bytes32"}],"outputs":[],"stateMutability":"nonpayable"},{"type":"event","name":"GuardianAdded","inputs":[{"name":"user","type":"address","indexed":true,"internalType":"address"},{"name":"guardian","type":"address","indexed":true,"internalType":"address"}],"anonymous":false},{"type":"event","name":"PasskeyRegistered","inputs":[{"name":"user","type":"address","indexed":true,"internalType":"address"},{"name":"credentialId","type":"bytes32","indexed":true,"internalType":"bytes32"},{"name":"deviceName","type":"string","indexed":false,"internalType":"string"},{"name":"timestamp","type":"uint256","indexed":false,"internalType":"uint256"}],"anonymous":false},{"type":"event","name":"PasskeyRevoked","inputs":[{"name":"user","type":"address","indexed":true,"internalType":"address"},{"name":"credentialId","type":"bytes32","indexed":true,"internalType":"bytes32"},{"name":"timestamp","type":"uint256","indexed":false,"internalType":"uint256"}],"anonymous":false},{"type":"event","name":"PasskeyUsed","inputs":[{"name":"user","type":"address","indexed":true,"internalType":"address"},{"name":"credentialId","type":"bytes32","indexed":true,"internalType":"bytes32"},{"name":"timestamp","type":"uint256","indexed":false,"internalType":"uint256"}],"anonymous":false},{"type":"event","name":"RecoveryApproved","inputs":[{"name":"guardian","type":"address","indexed":true,"internalType":"address"},{"name":"user","type":"address","indexed":true,"internalType":"address"}],"anonymous":false},{"type":"event","name":"RecoveryExecuted","inputs":[{"name":"oldOwner","type":"address","indexed":true,"internalType":"address"},{"name":"newOwner","type":"address","indexed":true,"internalType":"address"}],"anonymous":false},{"type":"event","name":"RecoveryInitiated","inputs":[{"name":"oldOwner","type":"address","indexed":true,"internalType":"address"},{"name":"newOwner","type":"address","indexed":true,"internalType":"address"},{"name":"expiresAt","type":"uint256","indexed":false,"internalType":"uint256"}],"anonymous":false}],"bytecode":{"object":"0x60808060405234601557611000908161001a8239f35b5f80fdfe60806040526004361015610011575f80fd5b5f3560e01c806337c8430914610c7457806378388c96146109ac578063a1b097c514610955578063a526d83b146107b4578063c2c397d314610782578063c3073a5e14610755578063e9e3868f1461021a578063eab7bf3a146101095763f42ca6961461007c575f80fd5b3461010557604036600319011261010557610095610cea565b6001600160a01b03165f90815260208181526040808320602435808552928190529220600401546100c89060ff16610d52565b5f526020526101016100e66100ed60405f2060405192838092610e3c565b0382610db6565b604051918291602083526020830190610d00565b0390f35b5f80fd5b3461010557602036600319011261010557600435335f525f60205260405f20815f528060205261014260ff600460405f20015416610d52565b60018082015411156101d557815f52806020526100e661016b60405f2060405192838092610e3c565b602081519101205f52600160205260405f206bffffffffffffffffffffffff60a01b8154169055815f52602052600460405f200160ff1981541690556040514281527fb0337df3d8f1ceb8faa4c02761e8ca8680c5ad39a1ea4ae9089b565a5cfe5fbc60203392a3005b60405162461bcd60e51b815260206004820152601a60248201527f43616e6e6f74207265766f6b65206c61737420706173736b65790000000000006044820152606490fd5b346101055760603660031901126101055760043560243567ffffffffffffffff81116101055761024e903690600401610d24565b60443567ffffffffffffffff81116101055761026e903690600401610d24565b92604183036107105782156106fc57603f60fa1b81356001600160f81b031916016106b757831561067b57335f525f60205260405f209060048201805460ff81161561066b575b5050855f528160205260ff600460405f20015416610626576102d8368583610f35565b6020815191012093845f52600160205260018060a01b0360405f2054166105e1576040519160a083019183831067ffffffffffffffff8411176104e757610323926040523691610f35565b8152610330368685610f35565b9060208101918252604081014281526060820190428252608083019360018552895f528560205260405f20935180519067ffffffffffffffff82116104e7576103838261037d8854610e04565b88610f7b565b602090601f831160011461057e576103b292915f9183610573575b50508160011b915f199060031b1c19161790565b84555b518051600185019167ffffffffffffffff82116104e7576103e0826103da8554610e04565b85610f7b565b602090601f83116001146105065782600199989795936004979593610419935f926104fb5750508160011b915f199060031b1c19161790565b90555b516002830155516003820155019051151560ff801983541691161790550191825492600160401b8410156104e7578361047b9160017f7405ba2e3189787f3bf7651461af68d1e6555e73d1c46cf6895f953584a12b2a96018155610d93565b81549060031b9087821b915f19901b19161790555f52600160205260405f20336bffffffffffffffffffffffff60a01b82541617905582604051916040835281604084015260608301375f606084830101524260208201526060813394601f80199101168101030190a3005b634e487b7160e01b5f52604160045260245ffd5b015190508f8061039e565b90601f19831691845f52815f20925f5b81811061055b57509260019a9998969491928b938360049a989610610543575b505050811b01905561041c565b01515f1960f88460031b161c191690558e8080610536565b92936020600181928786015181550195019301610516565b015190508d8061039e565b90601f19831691875f52815f20925f5b8181106105c957509084600195949392106105b1575b505050811b0184556103b5565b01515f1960f88460031b161c191690558c80806105a4565b9293602060018192878601518155019501930161058e565b60405162461bcd60e51b815260206004820152601960248201527f5075626c6963206b657920616c726561647920696e20757365000000000000006044820152606490fd5b60405162461bcd60e51b815260206004820152601d60248201527f43726564656e7469616c20616c726561647920726567697374657265640000006044820152606490fd5b60ff1916600117905586806102b5565b60405162461bcd60e51b815260206004820152601460248201527311195d9a58d9481b985b59481c995c5d5a5c995960621b6044820152606490fd5b60405162461bcd60e51b815260206004820152601f60248201527f5075626c6963206b6579206d75737420626520756e636f6d70726573736564006044820152606490fd5b634e487b7160e01b5f52603260045260245ffd5b60405162461bcd60e51b815260206004820152601960248201527f496e76616c6964207075626c6963206b6579206c656e677468000000000000006044820152606490fd5b34610105576020366003190112610105576020610778610773610cea565b610ebd565b6040519015158152f35b34610105576020366003190112610105576004355f526001602052602060018060a01b0360405f205416604051908152f35b34610105576020366003190112610105576001600160a01b036107d5610cea565b16801561091d573381146108df57335f525f60205260405f2060ff6004820154161561089a576002810190815490600160401b8210156104e75761082182600160039401855584610d93565b81546001600160a01b0391851b91821b19169086901b1790550180549091901561086e575b82337fbc3292102fa77e083913064b282926717cdfaede4d35f553d66366c0a3da755a5f80a3005b54600181018091116108865760011c90558180610846565b634e487b7160e01b5f52601160045260245ffd5b60405162461bcd60e51b815260206004820152601760248201527f4163636f756e74206e6f7420696e697469616c697a65640000000000000000006044820152606490fd5b60405162461bcd60e51b815260206004820152601660248201527521b0b73737ba1031329037bbb71033bab0b93234b0b760511b6044820152606490fd5b60405162461bcd60e51b815260206004820152601060248201526f24b73b30b634b21033bab0b93234b0b760811b6044820152606490fd5b34610105576020366003190112610105576001600160a01b03610976610cea565b165f526002602052606060405f2060018060a01b0381541690600360018201549101549060405192835260208301526040820152f35b34610105576020366003190112610105576001600160a01b036109cd610cea565b165f525f60205260405f205f5f91600181018054935b848110610c2a57506109f483610dd8565b92610a026040519485610db6565b808452610a0e81610dd8565b602085019590601f1901368737610a2482610dd8565b92610a326040519485610db6565b828452601f19610a4184610dd8565b015f5b818110610c17575050610a6f610a5984610dd8565b93610a676040519586610db6565b808552610dd8565b602084019590601f19013687375f915f5b848110610b69575050505050604051948594606086019060608752518091526080860191905f5b818110610b50575050508481036020860152825180825260208201916020808360051b8301019501925f915b838310610b1b575050505050602090848303604086015251918281520191905f5b818110610b02575050500390f35b8251845285945060209384019390920191600101610af4565b9193969750919394602080610b3c600193601f198682030187528a51610d00565b980193019301909288979695949293610ad3565b8251845288975060209384019390920191600101610aa7565b610b7981839b9798999a9b610d93565b90549060031b1c805f52836020528a60ff600460405f20015416610ba8575b5050600101989796959498610a80565b9481610c0f92610bbb8360019699610df0565b52805f52856020526100e6610bdb8560405f200160405192838092610e3c565b610be5838d610df0565b52610bf0828c610df0565b505f5284602052600360405f200154610c09828b610df0565b52610da8565b93908a610b98565b6060602082880181019190915201610a44565b610c378183949593610d93565b90549060031b1c5f528360205260ff600460405f20015416610c60575b600101929190926109e3565b90610c6c600191610da8565b919050610c54565b3461010557602036600319011261010557600435335f525f60205260405f20815f5280602052610cad60ff600460405f20015416610d52565b815f5260205242600360405f2001556040514281527f7c7e5762babc2620e7a91b1d0d4d2814773a940f2d2e671242f4ff15dc40bf8b60203392a3005b600435906001600160a01b038216820361010557565b805180835260209291819084018484015e5f828201840152601f01601f1916010190565b9181601f840112156101055782359167ffffffffffffffff8311610105576020838186019501011161010557565b15610d5957565b60405162461bcd60e51b8152602060048201526012602482015271506173736b6579206e6f742061637469766560701b6044820152606490fd5b80548210156106fc575f5260205f2001905f90565b5f1981146108865760010190565b90601f8019910116810190811067ffffffffffffffff8211176104e757604052565b67ffffffffffffffff81116104e75760051b60200190565b80518210156106fc5760209160051b010190565b90600182811c92168015610e32575b6020831014610e1e57565b634e487b7160e01b5f52602260045260245ffd5b91607f1691610e13565b5f9291815491610e4b83610e04565b8083529260018116908115610ea05750600114610e6757505050565b5f9081526020812093945091925b838310610e86575060209250010190565b600181602092949394548385870101520191019190610e75565b915050602093945060ff929192191683830152151560051b010190565b6001600160a01b03165f908152602081905260409020600481015460ff1615610f30575f90600181018054925b838110610ef957505050505f90565b610f038183610d93565b90549060031b1c5f528260205260ff600460405f20015416610f2757600101610eea565b50505050600190565b505f90565b92919267ffffffffffffffff82116104e75760405191610f5f601f8201601f191660200184610db6565b829481845281830111610105578281602093845f960137010152565b601f8211610f8857505050565b5f5260205f20906020601f840160051c83019310610fc0575b601f0160051c01905b818110610fb5575050565b5f8155600101610faa565b9091508190610fa156fea2646970667358221220675b35e8f0824ced3d00cb07ae1ba625d80d152a2114b111a3882aed19983ecb64736f6c634300081c0033","linkReferences":{}},"methodIdentifiers":{"addGuardian(address)":"a526d83b","getPasskeyPublicKey(address,bytes32)":"f42ca696","getUserPasskeys(address)":"78388c96","hasActivePasskey(address)":"c3073a5e","publicKeyOwner(bytes32)":"c2c397d3","recordPasskeyUsage(bytes32)":"37c84309","recoveryRequests(address)":"a1b097c5","registerPasskey(bytes32,bytes,string)":"e9e3868f","revokePasskey(bytes32)":"eab7bf3a"},"id":30}