{"abi":[{"type":"constructor","inputs":[{"name":"_complianceRegistry","type":"address","internalType":"address"}],"stateMutability":"nonpayable"},{"type":"function","name":"allowance","inputs":[{"name":"owner","type":"address","internalType":"address"},{"name":"spender","type":"address","internalType":"address"}],"outputs":[{"name":"","type":"uint256","internalType":"uint256"}],"stateMutability":"view"},{"type":"function","name":"approve","inputs":[{"name":"spender","type":"address","internalType":"address"},{"name":"value","type":"uint256","internalType":"uint256"}],"outputs":[{"name":"","type":"bool","internalType":"bool"}],"stateMutability":"nonpayable"},{"type":"function","name":"balanceOf","inputs":[{"name":"account","type":"address","internalType":"address"}],"outputs":[{"name":"","type":"uint256","internalType":"uint256"}],"stateMutability":"view"},{"type":"function","name":"burn","inputs":[{"name":"amount","type":"uint256","internalType":"uint256"}],"outputs":[],"stateMutability":"nonpayable"},{"type":"function","name":"complianceRegistry","inputs":[],"outputs":[{"name":"","type":"address","internalType":"address"}],"stateMutability":"view"},{"type":"function","name":"decimals","inputs":[],"outputs":[{"name":"","type":"uint8","internalType":"uint8"}],"stateMutability":"view"},{"type":"function","name":"isCompliant","inputs":[{"name":"user","type":"address","internalType":"address"}],"outputs":[{"name":"","type":"bool","internalType":"bool"}],"stateMutability":"view"},{"type":"function","name":"mint","inputs":[{"name":"to","type":"address","internalType":"address"},{"name":"amount","type":"uint256","internalType":"uint256"}],"outputs":[],"stateMutability":"nonpayable"},{"type":"function","name":"mint","inputs":[{"name":"amount","type":"uint256","internalType":"uint256"}],"outputs":[],"stateMutability":"nonpayable"},{"type":"function","name":"name","inputs":[],"outputs":[{"name":"","type":"string","internalType":"string"}],"stateMutability":"view"},{"type":"function","name":"owner","inputs":[],"outputs":[{"name":"","type":"address","internalType":"address"}],"stateMutability":"view"},{"type":"function","name":"renounceOwnership","inputs":[],"outputs":[],"stateMutability":"nonpayable"},{"type":"function","name":"symbol","inputs":[],"outputs":[{"name":"","type":"string","internalType":"string"}],"stateMutability":"view"},{"type":"function","name":"totalSupply","inputs":[],"outputs":[{"name":"","type":"uint256","internalType":"uint256"}],"stateMutability":"view"},{"type":"function","name":"transfer","inputs":[{"name":"to","type":"address","internalType":"address"},{"name":"value","type":"uint256","internalType":"uint256"}],"outputs":[{"name":"","type":"bool","internalType":"bool"}],"stateMutability":"nonpayable"},{"type":"function","name":"transferFrom","inputs":[{"name":"from","type":"address","internalType":"address"},{"name":"to","type":"address","internalType":"address"},{"name":"value","type":"uint256","internalType":"uint256"}],"outputs":[{"name":"","type":"bool","internalType":"bool"}],"stateMutability":"nonpayable"},{"type":"function","name":"transferOwnership","inputs":[{"name":"newOwner","type":"address","internalType":"address"}],"outputs":[],"stateMutability":"nonpayable"},{"type":"function","name":"updateComplianceRegistry","inputs":[{"name":"_newRegistry","type":"address","internalType":"address"}],"outputs":[],"stateMutability":"nonpayable"},{"type":"event","name":"Approval","inputs":[{"name":"owner","type":"address","indexed":true,"internalType":"address"},{"name":"spender","type":"address","indexed":true,"internalType":"address"},{"name":"value","type":"uint256","indexed":false,"internalType":"uint256"}],"anonymous":false},{"type":"event","name":"ComplianceRegistryUpdated","inputs":[{"name":"newRegistry","type":"address","indexed":true,"internalType":"address"}],"anonymous":false},{"type":"event","name":"OwnershipTransferred","inputs":[{"name":"previousOwner","type":"address","indexed":true,"internalType":"address"},{"name":"newOwner","type":"address","indexed":true,"internalType":"address"}],"anonymous":false},{"type":"event","name":"Transfer","inputs":[{"name":"from","type":"address","indexed":true,"internalType":"address"},{"name":"to","type":"address","indexed":true,"internalType":"address"},{"name":"value","type":"uint256","indexed":false,"internalType":"uint256"}],"anonymous":false},{"type":"error","name":"ERC20InsufficientAllowance","inputs":[{"name":"spender","type":"address","internalType":"address"},{"name":"allowance","type":"uint256","internalType":"uint256"},{"name":"needed","type":"uint256","internalType":"uint256"}]},{"type":"error","name":"ERC20InsufficientBalance","inputs":[{"name":"sender","type":"address","internalType":"address"},{"name":"balance","type":"uint256","internalType":"uint256"},{"name":"needed","type":"uint256","internalType":"uint256"}]},{"type":"error","name":"ERC20InvalidApprover","inputs":[{"name":"approver","type":"address","internalType":"address"}]},{"type":"error","name":"ERC20InvalidReceiver","inputs":[{"name":"receiver","type":"address","internalType":"address"}]},{"type":"error","name":"ERC20InvalidSender","inputs":[{"name":"sender","type":"address","internalType":"address"}]},{"type":"error","name":"ERC20InvalidSpender","inputs":[{"name":"spender","type":"address","internalType":"address"}]},{"type":"error","name":"OwnableInvalidOwner","inputs":[{"name":"owner","type":"address","internalType":"address"}]},{"type":"error","name":"OwnableUnauthorizedAccount","inputs":[{"name":"account","type":"address","internalType":"address"}]}],"bytecode":{"object":"0x6080806040523461041c57602081611037803803809161001f8285610420565b83398101031261041c57516001600160a01b0381169081900361041c5760409081519161004c8184610420565b600a835269135bd8dac8109552511360b21b60208401528051916100708284610420565b60068352651b509552511360d21b602084015283516001600160401b03811161032d57600354600181811c91168015610412575b602082101461030f57601f81116103af575b50602094601f821160011461034c579481929394955f92610341575b50508160011b915f199060031b1c1916176003555b82516001600160401b03811161032d57600454600181811c91168015610323575b602082101461030f57601f81116102ac575b506020601f821160011461024957819293945f9261023e575b50508160011b915f199060031b1c1916176004555b331561022b5760058054336001600160a01b0319821681179092556001600160a01b03167f8be0079c531659141344cd1fd0a4f28419497f9722a3daafe3b4186f6b6457e05f80a360018060a01b0319600654161760065560025469d3c21bcecceda1000000810180911161021757600255335f525f602052805f2069d3c21bcecceda10000008154019055805169d3c21bcecceda100000081525f7fddf252ad1be2c89b69c2b068fc378daa952ba7f163c4a11628f55a4df523b3ef60203393a351610bf390816104448239f35b634e487b7160e01b5f52601160045260245ffd5b631e4fbdf760e01b5f525f60045260245ffd5b015190505f80610133565b601f1982169060045f52805f20915f5b8181106102945750958360019596971061027c575b505050811b01600455610148565b01515f1960f88460031b161c191690555f808061026e565b9192602060018192868b015181550194019201610259565b60045f527f8a35acfbc15ff81a39ae7d344fd709f28e8600b4aa8c65c6b64bfe7fe36bd19b601f830160051c81019160208410610305575b601f0160051c01905b8181106102fa575061011a565b5f81556001016102ed565b90915081906102e4565b634e487b7160e01b5f52602260045260245ffd5b90607f1690610108565b634e487b7160e01b5f52604160045260245ffd5b015190505f806100d2565b601f1982169560035f52805f20915f5b8881106103975750836001959697981061037f575b505050811b016003556100e7565b01515f1960f88460031b161c191690555f8080610371565b9192602060018192868501518155019401920161035c565b60035f527fc2575a0e9e593c00f959f8c92f12db2869c3395a3b0502d05e2516446f71f85b601f830160051c81019160208410610408575b601f0160051c01905b8181106103fd57506100b6565b5f81556001016103f0565b90915081906103e7565b90607f16906100a4565b5f80fd5b601f909101601f19168101906001600160401b0382119082101761032d5760405256fe6080806040526004361015610012575f80fd5b5f3560e01c90816306fdde031461079057508063095ea7b31461070e5780630de57cfc146106a857806318160ddd1461068b57806323b872dd146105ac578063313ce5671461059157806340c10f191461056457806342966c681461046757806370a0823114610430578063715018a6146103d55780638da5cb5b146103ad57806395d89b41146102a9578063a0712d6814610242578063a200e5d014610215578063a9059cbb146101e4578063cac89c5c146101bc578063dd62ed3e1461016c5763f2fde38b146100e2575f80fd5b34610168576020366003190112610168576100fb610872565b6101036109b6565b6001600160a01b0316801561015557600580546001600160a01b0319811683179091556001600160a01b03167f8be0079c531659141344cd1fd0a4f28419497f9722a3daafe3b4186f6b6457e05f80a3005b631e4fbdf760e01b5f525f60045260245ffd5b5f80fd5b3461016857604036600319011261016857610185610872565b61018d610888565b6001600160a01b039182165f908152600160209081526040808320949093168252928352819020549051908152f35b34610168575f366003190112610168576006546040516001600160a01b039091168152602090f35b346101685760403660031901126101685761020a610200610872565b60243590336109dd565b602060405160018152f35b34610168576020366003190112610168576020610238610233610872565b6108d4565b6040519015158152f35b346101685760203660031901126101685761025c336108d4565b1561026f5761026d60043533610b1f565b005b60405162461bcd60e51b8152602060048201526012602482015271155cd95c881b9bdd0818dbdb5c1b1a585b9d60721b6044820152606490fd5b34610168575f366003190112610168576040515f6004548060011c906001811680156103a3575b60208310811461038f5782855290811561036b575060011461030d575b610309836102fd8185038261089e565b60405191829182610848565b0390f35b91905060045f527f8a35acfbc15ff81a39ae7d344fd709f28e8600b4aa8c65c6b64bfe7fe36bd19b915f905b808210610351575090915081016020016102fd6102ed565b919260018160209254838588010152019101909291610339565b60ff191660208086019190915291151560051b840190910191506102fd90506102ed565b634e487b7160e01b5f52602260045260245ffd5b91607f16916102d0565b34610168575f366003190112610168576005546040516001600160a01b039091168152602090f35b34610168575f366003190112610168576103ed6109b6565b600580546001600160a01b031981169091555f906001600160a01b03167f8be0079c531659141344cd1fd0a4f28419497f9722a3daafe3b4186f6b6457e08280a3005b34610168576020366003190112610168576001600160a01b03610451610872565b165f525f602052602060405f2054604051908152f35b34610168576020366003190112610168576004353315610551576005546001600160a01b03163303610507575b335f525f60205260405f20548181106104ee5790805f923384528360205203604083205580600254036002556040519081527fddf252ad1be2c89b69c2b068fc378daa952ba7f163c4a11628f55a4df523b3ef60203392a3005b63391434e360e21b5f523360045260245260445260645ffd5b610510336108d4565b610494575b60405162461bcd60e51b815260206004820152601460248201527314d95b99195c881b9bdd0818dbdb5c1b1a585b9d60621b6044820152606490fd5b634b637e8f60e11b5f525f60045260245ffd5b346101685760403660031901126101685761026d610580610872565b6105886109b6565b60243590610b1f565b34610168575f36600319011261016857602060405160128152f35b34610168576060366003190112610168576105c5610872565b6105cd610888565b6001600160a01b0382165f818152600160209081526040808320338452909152902054909260443592915f19811061060b575b5061020a93506109dd565b83811061067057841561065d57331561064a5761020a945f52600160205260405f2060018060a01b0333165f526020528360405f209103905584610600565b634a1406b160e11b5f525f60045260245ffd5b63e602df0560e01b5f525f60045260245ffd5b8390637dc7a0d960e11b5f523360045260245260445260645ffd5b34610168575f366003190112610168576020600254604051908152f35b34610168576020366003190112610168576106c1610872565b6106c96109b6565b600680546001600160a01b0319166001600160a01b039290921691821790557f98747757e5f0cf8ed88f5be95bf1fa9539ff10e55b2db045066f0bd3479052dc5f80a2005b3461016857604036600319011261016857610727610872565b60243590331561065d576001600160a01b031690811561064a57335f52600160205260405f20825f526020528060405f20556040519081527f8c5be1e5ebec7d5bd14f71427d1e84f3dd0314c0f7b2291e5b200ac8c7c3b92560203392a3602060405160018152f35b34610168575f366003190112610168575f6003548060011c9060018116801561083e575b60208310811461038f5782855290811561036b57506001146107e057610309836102fd8185038261089e565b91905060035f527fc2575a0e9e593c00f959f8c92f12db2869c3395a3b0502d05e2516446f71f85b915f905b808210610824575090915081016020016102fd6102ed565b91926001816020925483858801015201910190929161080c565b91607f16916107b4565b602060409281835280519182918282860152018484015e5f828201840152601f01601f1916010190565b600435906001600160a01b038216820361016857565b602435906001600160a01b038216820361016857565b90601f8019910116810190811067ffffffffffffffff8211176108c057604052565b634e487b7160e01b5f52604160045260245ffd5b6006546001600160a01b03169081156109af575f9182916040516020810191635156fda160e01b835260018060a01b0316602482015260406044820152601360648201527230b1b1b932b234ba32b22fb4b73b32b9ba37b960691b60848201526084815261094360a48261089e565b51915afa3d156109a7573d9067ffffffffffffffff82116108c05760405191610976601f8201601f19166020018461089e565b82523d5f602084013e5b156109a257602081805181010312610168576020015180151581036101685790565b505f90565b606090610980565b5050600190565b6005546001600160a01b031633036109ca57565b63118cdaa760e01b5f523360045260245ffd5b916001600160a01b038316918215610551576001600160a01b038116938415610b0c576005546001600160a01b03168403610af8575b506005546001600160a01b03168403610a9f575b50815f525f60205260405f2054818110610a8657817fddf252ad1be2c89b69c2b068fc378daa952ba7f163c4a11628f55a4df523b3ef92602092855f525f84520360405f2055845f525f825260405f20818154019055604051908152a3565b8263391434e360e21b5f5260045260245260445260645ffd5b610aa8906108d4565b15610ab3575f610a27565b60405162461bcd60e51b815260206004820152601760248201527f526563697069656e74206e6f7420636f6d706c69616e740000000000000000006044820152606490fd5b610b01906108d4565b15610515575f610a13565b63ec442f0560e01b5f525f60045260245ffd5b6001600160a01b03811691908215610b0c576005546001600160a01b03168303610ba9575b5060025490808201809211610b955760207fddf252ad1be2c89b69c2b068fc378daa952ba7f163c4a11628f55a4df523b3ef915f9360025584845283825260408420818154019055604051908152a3565b634e487b7160e01b5f52601160045260245ffd5b610bb2906108d4565b15610ab3575f610b4456fea2646970667358221220dc44764ec50aa2bf567ee2bd1784cbe9b0f68ed4cab3365b7b81bbbfb9ba0b8964736f6c634300081c0033","linkReferences":{}},"methodIdentifiers":{"allowance(address,address)":"dd62ed3e","approve(address,uint256)":"095ea7b3","balanceOf(address)":"70a08231","burn(uint256)":"42966c68","complianceRegistry()":"cac89c5c","decimals()":"313ce567","isCompliant(address)":"a200e5d0","mint(address,uint256)":"40c10f19","mint(uint256)":"a0712d68","name()":"06fdde03","owner()":"8da5cb5b","renounceOwnership()":"715018a6","symbol()":"95d89b41","totalSupply()":"18160ddd","transfer(address,uint256)":"a9059cbb","transferFrom(address,address,uint256)":"23b872dd","transferOwnership(address)":"f2fde38b","updateComplianceRegistry(address)":"0de57cfc"},"id":29}