{"abi":[{"type":"constructor","inputs":[],"stateMutability":"nonpayable"},{"type":"function","name":"DEFAULT_ADMIN_ROLE","inputs":[],"outputs":[{"name":"","type":"bytes32","internalType":"bytes32"}],"stateMutability":"view"},{"type":"function","name":"VERIFIER_ROLE","inputs":[],"outputs":[{"name":"","type":"bytes32","internalType":"bytes32"}],"stateMutability":"view"},{"type":"function","name":"getRecord","inputs":[{"name":"user","type":"address","internalType":"address"},{"name":"attributeType","type":"string","internalType":"string"}],"outputs":[{"name":"","type":"tuple","internalType":"struct ComplianceRegistry.ComplianceRecord","components":[{"name":"verified","type":"bool","internalType":"bool"},{"name":"verifiedAt","type":"uint256","internalType":"uint256"},{"name":"expiresAt","type":"uint256","internalType":"uint256"},{"name":"proofHash","type":"bytes32","internalType":"bytes32"}]}],"stateMutability":"view"},{"type":"function","name":"getRoleAdmin","inputs":[{"name":"role","type":"bytes32","internalType":"bytes32"}],"outputs":[{"name":"","type":"bytes32","internalType":"bytes32"}],"stateMutability":"view"},{"type":"function","name":"grantRole","inputs":[{"name":"role","type":"bytes32","internalType":"bytes32"},{"name":"account","type":"address","internalType":"address"}],"outputs":[],"stateMutability":"nonpayable"},{"type":"function","name":"hasRole","inputs":[{"name":"role","type":"bytes32","internalType":"bytes32"},{"name":"account","type":"address","internalType":"address"}],"outputs":[{"name":"","type":"bool","internalType":"bool"}],"stateMutability":"view"},{"type":"function","name":"isCompliant","inputs":[{"name":"user","type":"address","internalType":"address"},{"name":"attributeType","type":"string","internalType":"string"}],"outputs":[{"name":"valid","type":"bool","internalType":"bool"}],"stateMutability":"view"},{"type":"function","name":"recordCompliance","inputs":[{"name":"user","type":"address","internalType":"address"},{"name":"attributeType","type":"string","internalType":"string"},{"name":"proofHash","type":"bytes32","internalType":"bytes32"},{"name":"validityPeriod","type":"uint256","internalType":"uint256"}],"outputs":[],"stateMutability":"nonpayable"},{"type":"function","name":"records","inputs":[{"name":"","type":"address","internalType":"address"},{"name":"","type":"string","internalType":"string"}],"outputs":[{"name":"verified","type":"bool","internalType":"bool"},{"name":"verifiedAt","type":"uint256","internalType":"uint256"},{"name":"expiresAt","type":"uint256","internalType":"uint256"},{"name":"proofHash","type":"bytes32","internalType":"bytes32"}],"stateMutability":"view"},{"type":"function","name":"renounceRole","inputs":[{"name":"role","type":"bytes32","internalType":"bytes32"},{"name":"callerConfirmation","type":"address","internalType":"address"}],"outputs":[],"stateMutability":"nonpayable"},{"type":"function","name":"revokeCompliance","inputs":[{"name":"user","type":"address","internalType":"address"},{"name":"attributeType","type":"string","internalType":"string"}],"outputs":[],"stateMutability":"nonpayable"},{"type":"function","name":"revokeRole","inputs":[{"name":"role","type":"bytes32","internalType":"bytes32"},{"name":"account","type":"address","internalType":"address"}],"outputs":[],"stateMutability":"nonpayable"},{"type":"function","name":"supportsInterface","inputs":[{"name":"interfaceId","type":"bytes4","internalType":"bytes4"}],"outputs":[{"name":"","type":"bool","internalType":"bool"}],"stateMutability":"view"},{"type":"event","name":"ComplianceRevoked","inputs":[{"name":"user","type":"address","indexed":true,"internalType":"address"},{"name":"attributeType","type":"string","indexed":false,"internalType":"string"}],"anonymous":false},{"type":"event","name":"ComplianceVerified","inputs":[{"name":"user","type":"address","indexed":true,"internalType":"address"},{"name":"attributeType","type":"string","indexed":false,"internalType":"string"},{"name":"verifiedAt","type":"uint256","indexed":false,"internalType":"uint256"},{"name":"expiresAt","type":"uint256","indexed":false,"internalType":"uint256"}],"anonymous":false},{"type":"event","name":"RoleAdminChanged","inputs":[{"name":"role","type":"bytes32","indexed":true,"internalType":"bytes32"},{"name":"previousAdminRole","type":"bytes32","indexed":true,"internalType":"bytes32"},{"name":"newAdminRole","type":"bytes32","indexed":true,"internalType":"bytes32"}],"anonymous":false},{"type":"event","name":"RoleGranted","inputs":[{"name":"role","type":"bytes32","indexed":true,"internalType":"bytes32"},{"name":"account","type":"address","indexed":true,"internalType":"address"},{"name":"sender","type":"address","indexed":true,"internalType":"address"}],"anonymous":false},{"type":"event","name":"RoleRevoked","inputs":[{"name":"role","type":"bytes32","indexed":true,"internalType":"bytes32"},{"name":"account","type":"address","indexed":true,"internalType":"address"},{"name":"sender","type":"address","indexed":true,"internalType":"address"}],"anonymous":false},{"type":"error","name":"AccessControlBadConfirmation","inputs":[]},{"type":"error","name":"AccessControlUnauthorizedAccount","inputs":[{"name":"account","type":"address","internalType":"address"},{"name":"neededRole","type":"bytes32","internalType":"bytes32"}]}],"bytecode":{"object":"0x60806040523461002c5761001233610030565b5061001c336100a6565b50604051610936908161013a8239f35b5f80fd5b6001600160a01b0381165f9081525f516020610ab05f395f51905f52602052604090205460ff166100a1576001600160a01b03165f8181525f516020610ab05f395f51905f5260205260408120805460ff191660011790553391905f516020610a705f395f51905f528180a4600190565b505f90565b6001600160a01b0381165f9081525f516020610a905f395f51905f52602052604090205460ff166100a1576001600160a01b03165f8181525f516020610a905f395f51905f5260205260408120805460ff191660011790553391907f0ce23c3e399818cfee81a7ab0880f714e53d7672b08df0fa62f2843416e1ea09905f516020610a705f395f51905f529080a460019056fe6080806040526004361015610012575f80fd5b5f3560e01c90816301ffc9a714610620575080630255f5e9146105025780630f1894d01461046f578063248a9ca31461043d5780632f2ff15d1461040057806336568abe146103bc5780635156fda11461033857806391d14854146102f0578063a217fddf146102d6578063bbaf36b514610232578063d547741f146101ee578063d8e77cdb146100e95763e7705db6146100ab575f80fd5b346100e5575f3660031901126100e55760206040517f0ce23c3e399818cfee81a7ab0880f714e53d7672b08df0fa62f2843416e1ea098152f35b5f80fd5b346100e55760403660031901126100e557610102610673565b6024359067ffffffffffffffff82116100e557366023830112156100e55781600401359167ffffffffffffffff83116101da57604051601f8401601f19908116603f0116810167ffffffffffffffff8111828210176101da57604052838152602081019236602486850101116100e5575f602086608097602483970188378401015260018060a01b03165f526001825260405f20604051938492518091845e82019081520301902060ff8154169060018101549060036002820154910154916040519315158452602084015260408301526060820152f35b634e487b7160e01b5f52604160045260245ffd5b346100e55760403660031901126100e55761023060043561020d610689565b9061022b610226825f525f602052600160405f20015490565b6107c0565b610880565b005b346100e55760806020610244366106cd565b92915f6060610251610711565b8281528286820152826040820152015260018060a01b03165f526001825260405f2083604051948593843782019081520301902061028d610711565b60ff825416151591828252600181015460208301908152606060036002840154936040860194855201549301928352604051938452516020840152516040830152516060820152f35b346100e5575f3660031901126100e55760206040515f8152f35b346100e55760403660031901126100e557610309610689565b6004355f525f60205260405f209060018060a01b03165f52602052602060ff60405f2054166040519015158152f35b346100e557602080610349366106cd565b929160018060a01b03165f526001825260405f20836040519485938437820190815203019020610377610711565b9060ff815416151591828152600182015484820152606060036002840154938460408501520154910152816103b2575b506040519015158152f35b90504210826103a7565b346100e55760403660031901126100e5576103d5610689565b336001600160a01b038216036103f15761023090600435610880565b63334bd91960e11b5f5260045ffd5b346100e55760403660031901126100e55761023060043561041f610689565b90610438610226825f525f602052600160405f20015490565b6107f8565b346100e55760203660031901126100e55760206104676004355f525f602052600160405f20015490565b604051908152f35b346100e5577f55c7bc6df7d7e797a48d144f61ad8c7ce6d6c0af21af06ac4f9d2cafac14a57861049e366106cd565b92916104a8610751565b60018060a01b031692835f5260016020525f60036040822060206040518092868883378682019081520301902082815582600182015582600282015501556104fd604051928392602084526020840191610731565b0390a2005b346100e55760803660031901126100e55761051b610673565b60243567ffffffffffffffff81116100e55761053b90369060040161069f565b90610544610751565b60643542019182421161060c577fcd47c5229bebf9c68e1e7835c6da483063ee7be439f2e609c83808f7b6fdc82c9261057b610711565b6001815260036020820196428852604083018481526060840191604435835260018060a01b031698895f52600160205260405f20602060405180928a8c83378a8201908152030190209451151560ff80198754169116178555516001850155516002840155519101556105fb604051938493606085526060850191610731565b9042602084015260408301520390a2005b634e487b7160e01b5f52601160045260245ffd5b346100e55760203660031901126100e5576004359063ffffffff60e01b82168092036100e557602091637965db0b60e01b8114908115610662575b5015158152f35b6301ffc9a760e01b1490508361065b565b600435906001600160a01b03821682036100e557565b602435906001600160a01b03821682036100e557565b9181601f840112156100e55782359167ffffffffffffffff83116100e557602083818601950101116100e557565b9060406003198301126100e5576004356001600160a01b03811681036100e557916024359067ffffffffffffffff82116100e55761070d9160040161069f565b9091565b604051906080820182811067ffffffffffffffff8211176101da57604052565b908060209392818452848401375f828201840152601f01601f1916010190565b335f9081527f1da0b5176dfe03406af5a6eed66ca01dda9b45ac4da671c3fa379cb93717ef81602052604090205460ff161561078957565b63e2517d3f60e01b5f52336004527f0ce23c3e399818cfee81a7ab0880f714e53d7672b08df0fa62f2843416e1ea0960245260445ffd5b5f8181526020818152604080832033845290915290205460ff16156107e25750565b63e2517d3f60e01b5f523360045260245260445ffd5b5f818152602081815260408083206001600160a01b038616845290915290205460ff1661087a575f818152602081815260408083206001600160a01b0395909516808452949091528120805460ff19166001179055339291907f2f8788117e7eff1d82e926ec794901d17c78024a50270940304540a733656f0d9080a4600190565b50505f90565b5f818152602081815260408083206001600160a01b038616845290915290205460ff161561087a575f818152602081815260408083206001600160a01b0395909516808452949091528120805460ff19169055339291907ff6391f5c32d9c69d2a47ea670b442974b53935d1edc7fd64eb21e047a839171b9080a460019056fea2646970667358221220544487691946d48f3107e1ccdbc552c7ced7eb8fc8a7203aa1b410315605a8cc64736f6c634300081c00332f8788117e7eff1d82e926ec794901d17c78024a50270940304540a733656f0d1da0b5176dfe03406af5a6eed66ca01dda9b45ac4da671c3fa379cb93717ef81ad3228b676f7d3cd4284a5443f17f1962b36e491b30a40b2405849e597ba5fb5","linkReferences":{}},"methodIdentifiers":{"DEFAULT_ADMIN_ROLE()":"a217fddf","VERIFIER_ROLE()":"e7705db6","getRecord(address,string)":"bbaf36b5","getRoleAdmin(bytes32)":"248a9ca3","grantRole(bytes32,address)":"2f2ff15d","hasRole(bytes32,address)":"91d14854","isCompliant(address,string)":"5156fda1","recordCompliance(address,string,bytes32,uint256)":"0255f5e9","records(address,string)":"d8e77cdb","renounceRole(bytes32,address)":"36568abe","revokeCompliance(address,string)":"0f1894d0","revokeRole(bytes32,address)":"d547741f","supportsInterface(bytes4)":"01ffc9a7"},"id":26}